:020000040000FA
:060000000A128A11FC2F18
:100DE80083160313081488140800831203130808D1
:100DF8000139FE2E080083120313080C0139042F51
:100E08000800700C83120313031C88130318881737
:100E18000800700C83120313031C08130318081727
:100E28000800700C83120313031C88120318881619
:100E380008008316031388120813881383120313F8
:100E48008812081388130800372F0130F002003089
:100E5800031CF103F102C730F200322FF20B312FDD
:100E6800352F362F372F70087104031D3C2F3D2F67
:100E7800292F3E2F0800F501F601DE2FDE2F013065
:100E8800F5000030F600DE2F0A128A111D270A121B
:100E98008A110A128A11F4260A128A110A128A1170
:100EA800FF260A128A11013A031D5B2F5C2FDE2FE1
:100EB8000230F5000030F600DE2FDE2F0130F000A2
:100EC8000030F1000A128A1105270A128A1101302E
:100ED800F0000030F1000A128A110D270A128A1157
:100EE800B830F3000B30F4000330F5000030F600A2
:100EF800DE2F0130F0000030F1000A128A11282795
:100F08000A128A11FF30F3070318F40AFF30F407B6
:100F18007408803AFF0080307F02031D952F01304E
:100F280073020318982F992FDE2F0430F500003034
:100F3800F600DE2FDE2F0030F000F1000A128A11D1
:100F48000D270A128A110130F0000030F1000A1250
:100F58008A1115270A128A110A128A11F9260A1209
:100F68008A11013A031DB92FBA2FDE2F0530F5007B
:100F78000030F600DE2FDE2F0030F000F1000A12FC
:100F88008A1105270A128A110030F000F1000A12AE
:100F98008A110D270A128A110030F000F1000A1296
:100FA8008A1115270A128A110130F5000030F6005F
:100FB800DE2FDE2F7608003A0319E32FDE2F75089F
:100FC800003A0319432F013A0319482F033A03192A
:100FD800622F013A03197D2F073A03199F2F013A0F
:100FE8000319C02FDE2FDE2FDE2F0A128A110028E8
:080FF80083010A128A113F2F48
:04400E00D4E0FFFFFC
:00000001FF
